{
  "_format": "hh-sol-artifact-1",
  "contractName": "King",
  "sourceName": "contracts/King.sol",
  "abi": [
    {
      "inputs": [],
      "stateMutability": "payable",
      "type": "constructor"
    },
    {
      "inputs": [],
      "name": "_king",
      "outputs": [
        {
          "internalType": "address payable",
          "name": "",
          "type": "address"
        }
      ],
      "stateMutability": "view",
      "type": "function"
    },
    {
      "inputs": [],
      "name": "owner",
      "outputs": [
        {
          "internalType": "address payable",
          "name": "",
          "type": "address"
        }
      ],
      "stateMutability": "view",
      "type": "function"
    },
    {
      "inputs": [],
      "name": "prize",
      "outputs": [
        {
          "internalType": "uint256",
          "name": "",
          "type": "uint256"
        }
      ],
      "stateMutability": "view",
      "type": "function"
    },
    {
      "stateMutability": "payable",
      "type": "receive"
    }
  ],
  "bytecode": "0x608060405233600260006101000a81548173ffffffffffffffffffffffffffffffffffffffff021916908373ffffffffffffffffffffffffffffffffffffffff160217905550336000806101000a81548173ffffffffffffffffffffffffffffffffffffffff021916908373ffffffffffffffffffffffffffffffffffffffff160217905550346001819055506103a88061009b6000396000f3fe6080604052600436106100385760003560e01c806329cc6d6f1461018f5780638da5cb5b146101ba578063e3ac5d26146101e55761018a565b3661018a576001543410158061009b5750600260009054906101000a900473ffffffffffffffffffffffffffffffffffffffff1673ffffffffffffffffffffffffffffffffffffffff163373ffffffffffffffffffffffffffffffffffffffff16145b6100da576040517f08c379a00000000000000000000000000000000000000000000000000000000081526004016100d1906102c1565b60405180910390fd5b60008054906101000a900473ffffffffffffffffffffffffffffffffffffffff1673ffffffffffffffffffffffffffffffffffffffff166108fc349081150290604051600060405180830381858888f19350505050158015610140573d6000803e3d6000fd5b50336000806101000a81548173ffffffffffffffffffffffffffffffffffffffff021916908373ffffffffffffffffffffffffffffffffffffffff16021790555034600181905550005b600080fd5b34801561019b57600080fd5b506101a4610210565b6040516101b191906102a6565b60405180910390f35b3480156101c657600080fd5b506101cf610239565b6040516101dc91906102a6565b60405180910390f35b3480156101f157600080fd5b506101fa61025f565b60405161020791906102e1565b60405180910390f35b60008060009054906101000a900473ffffffffffffffffffffffffffffffffffffffff16905090565b600260009054906101000a900473ffffffffffffffffffffffffffffffffffffffff1681565b60015481565b61026e8161030d565b82525050565b60006102816016836102fc565b915061028c82610349565b602082019050919050565b6102a08161033f565b82525050565b60006020820190506102bb6000830184610265565b92915050565b600060208201905081810360008301526102da81610274565b9050919050565b60006020820190506102f66000830184610297565b92915050565b600082825260208201905092915050565b60006103188261031f565b9050919050565b600073ffffffffffffffffffffffffffffffffffffffff82169050919050565b6000819050919050565b7f56616c7565206d757374206265203e3d207072697a650000000000000000000060008201525056fea2646970667358221220abe76dffd4cf3a124e8b9a2e9a1156731fb2df153ce9f959ce0e6228121c093164736f6c63430008040033",
  "linkReferences": {},
  "deployedLinkReferences": {}
}