{
  "_format": "hh-sol-artifact-1",
  "contractName": "Attacker",
  "sourceName": "contracts/Attacker.sol",
  "abi": [
    {
      "inputs": [
        {
          "internalType": "address payable",
          "name": "addr",
          "type": "address"
        }
      ],
      "name": "destroy",
      "outputs": [],
      "stateMutability": "nonpayable",
      "type": "function"
    },
    {
      "inputs": [
        {
          "internalType": "address payable",
          "name": "addr",
          "type": "address"
        }
      ],
      "name": "forwardTo",
      "outputs": [],
      "stateMutability": "payable",
      "type": "function"
    },
    {
      "inputs": [
        {
          "internalType": "address payable",
          "name": "addr",
          "type": "address"
        }
      ],
      "name": "sendAllTo",
      "outputs": [],
      "stateMutability": "nonpayable",
      "type": "function"
    },
    {
      "inputs": [
        {
          "internalType": "bool",
          "name": "value",
          "type": "bool"
        }
      ],
      "name": "setLocked",
      "outputs": [],
      "stateMutability": "nonpayable",
      "type": "function"
    },
    {
      "stateMutability": "payable",
      "type": "receive"
    }
  ],
  "bytecode": "0x608060405260008060006101000a81548160ff02191690831515021790555034801561002a57600080fd5b5061039d8061003a6000396000f3fe6080604052600436106100425760003560e01c8062f55d9d146100a2578063211e28b6146100cb57806327d8ad88146100f45780635913c810146101105761009d565b3661009d576000151560008054906101000a900460ff1615151461009b576040517f08c379a0000000000000000000000000000000000000000000000000000000008152600401610092906102a1565b60405180910390fd5b005b600080fd5b3480156100ae57600080fd5b506100c960048036038101906100c4919061022c565b610139565b005b3480156100d757600080fd5b506100f260048036038101906100ed9190610255565b610152565b005b61010e6004803603810190610109919061022c565b61016e565b005b34801561011c57600080fd5b506101376004803603810190610132919061022c565b6101b8565b005b8073ffffffffffffffffffffffffffffffffffffffff16ff5b806000806101000a81548160ff02191690831515021790555050565b8073ffffffffffffffffffffffffffffffffffffffff166108fc349081150290604051600060405180830381858888f193505050501580156101b4573d6000803e3d6000fd5b5050565b8073ffffffffffffffffffffffffffffffffffffffff166108fc479081150290604051600060405180830381858888f193505050501580156101fe573d6000803e3d6000fd5b5050565b60008135905061021181610339565b92915050565b60008135905061022681610350565b92915050565b60006020828403121561023e57600080fd5b600061024c84828501610202565b91505092915050565b60006020828403121561026757600080fd5b600061027584828501610217565b91505092915050565b600061028b6013836102c1565b915061029682610310565b602082019050919050565b600060208201905081810360008301526102ba8161027e565b9050919050565b600082825260208201905092915050565b60006102dd826102f0565b9050919050565b60008115159050919050565b600073ffffffffffffffffffffffffffffffffffffffff82169050919050565b7f5061796d656e74206e6f7420616c6c6f77656400000000000000000000000000600082015250565b610342816102d2565b811461034d57600080fd5b50565b610359816102e4565b811461036457600080fd5b5056fea26469706673582212204b416c350087f5433b1bde35efe48a521747dc438c28e35780f8a904b85212e464736f6c63430008040033",
  "linkReferences": {},
  "deployedLinkReferences": {}
}