{
  "_format": "hh-sol-artifact-1",
  "contractName": "Underflow",
  "sourceName": "contracts/Underflow.sol",
  "abi": [
    {
      "inputs": [],
      "name": "deposit",
      "outputs": [],
      "stateMutability": "payable",
      "type": "function"
    },
    {
      "inputs": [
        {
          "internalType": "uint256",
          "name": "_amount",
          "type": "uint256"
        }
      ],
      "name": "withdraw",
      "outputs": [],
      "stateMutability": "nonpayable",
      "type": "function"
    }
  ],
  "bytecode": "0x608060405234801561001057600080fd5b50610271806100206000396000f3fe6080604052600436106100295760003560e01c80632e1a7d4d1461002e578063d0e30db014610069575b600080fd5b34801561003a57600080fd5b506100676004803603602081101561005157600080fd5b8101908080359060200190929190505050610073565b005b6100716101ed565b005b6000816000803373ffffffffffffffffffffffffffffffffffffffff1673ffffffffffffffffffffffffffffffffffffffff1681526020019081526020016000205403101561012a576040517f08c379a00000000000000000000000000000000000000000000000000000000081526004018080602001828103825260148152602001807f496e73756666696369656e742062616c616e636500000000000000000000000081525060200191505060405180910390fd5b806000803373ffffffffffffffffffffffffffffffffffffffff1673ffffffffffffffffffffffffffffffffffffffff1681526020019081526020016000206000828254039250508190555060003373ffffffffffffffffffffffffffffffffffffffff168260405180600001905060006040518083038185875af1925050503d80600081146101d6576040519150601f19603f3d011682016040523d82523d6000602084013e6101db565b606091505b50509050806101e957600080fd5b5050565b346000803373ffffffffffffffffffffffffffffffffffffffff1673ffffffffffffffffffffffffffffffffffffffff1681526020019081526020016000206000828254019250508190555056fea26469706673582212207f0608895fbc687e89cb815bbe31f12fa1433179a9d24cd6e3f36d1fe56bfe2664736f6c63430007000033",
  "linkReferences": {},
  "deployedLinkReferences": {}
}